{
  "_format": "hh-sol-artifact-1",
  "contractName": "DocumentManagement",
  "sourceName": "contracts/DocumentManagement.sol",
  "abi": [
    {
      "inputs": [],
      "stateMutability": "nonpayable",
      "type": "constructor"
    },
    {
      "anonymous": false,
      "inputs": [
        {
          "indexed": true,
          "internalType": "address",
          "name": "studentAddress",
          "type": "address"
        },
        {
          "indexed": false,
          "internalType": "string",
          "name": "ipfsHash",
          "type": "string"
        }
      ],
      "name": "DocumentAdded",
      "type": "event"
    },
    {
      "anonymous": false,
      "inputs": [
        {
          "indexed": true,
          "internalType": "address",
          "name": "studentAddress",
          "type": "address"
        },
        {
          "indexed": false,
          "internalType": "string",
          "name": "ipfsHash",
          "type": "string"
        }
      ],
      "name": "DocumentVerified",
      "type": "event"
    },
    {
      "inputs": [
        {
          "internalType": "address",
          "name": "studentAddress",
          "type": "address"
        },
        {
          "internalType": "string",
          "name": "_ipfsData",
          "type": "string"
        },
        {
          "internalType": "string",
          "name": "_verificationCode",
          "type": "string"
        }
      ],
      "name": "addDocument",
      "outputs": [],
      "stateMutability": "nonpayable",
      "type": "function"
    },
    {
      "inputs": [
        {
          "internalType": "string",
          "name": "_name",
          "type": "string"
        },
        {
          "internalType": "address",
          "name": "_studentId",
          "type": "address"
        }
      ],
      "name": "addStudent",
      "outputs": [],
      "stateMutability": "nonpayable",
      "type": "function"
    },
    {
      "inputs": [
        {
          "internalType": "address",
          "name": "studentAddress",
          "type": "address"
        },
        {
          "internalType": "string",
          "name": "_verificationCode",
          "type": "string"
        }
      ],
      "name": "isDocumentExist",
      "outputs": [
        {
          "internalType": "bool",
          "name": "",
          "type": "bool"
        }
      ],
      "stateMutability": "view",
      "type": "function"
    },
    {
      "inputs": [],
      "name": "owner",
      "outputs": [
        {
          "internalType": "address",
          "name": "",
          "type": "address"
        }
      ],
      "stateMutability": "view",
      "type": "function"
    },
    {
      "inputs": [
        {
          "internalType": "address",
          "name": "",
          "type": "address"
        }
      ],
      "name": "students",
      "outputs": [
        {
          "internalType": "string",
          "name": "name",
          "type": "string"
        },
        {
          "internalType": "address",
          "name": "studentId",
          "type": "address"
        },
        {
          "internalType": "uint256",
          "name": "documentCount",
          "type": "uint256"
        }
      ],
      "stateMutability": "view",
      "type": "function"
    },
    {
      "inputs": [
        {
          "internalType": "address",
          "name": "studentAddress",
          "type": "address"
        },
        {
          "internalType": "string",
          "name": "_verificationCode",
          "type": "string"
        }
      ],
      "name": "verifyDocument",
      "outputs": [],
      "stateMutability": "nonpayable",
      "type": "function"
    },
    {
      "inputs": [
        {
          "internalType": "address",
          "name": "studentAddress",
          "type": "address"
        },
        {
          "internalType": "string",
          "name": "_verificationCode",
          "type": "string"
        }
      ],
      "name": "viewDocument",
      "outputs": [
        {
          "internalType": "string",
          "name": "",
          "type": "string"
        }
      ],
      "stateMutability": "view",
      "type": "function"
    }
  ],
  "bytecode": "0x608060405234801561001057600080fd5b50336000806101000a81548173ffffffffffffffffffffffffffffffffffffffff021916908373ffffffffffffffffffffffffffffffffffffffff1602179055506114ba806100606000396000f3fe608060405234801561001057600080fd5b506004361061007d5760003560e01c8063641ee9d51161005b578063641ee9d5146100fe5780638da5cb5b1461011a578063a6c807a914610138578063b687e3c21461016a5761007d565b806310468c2f14610082578063496897b21461009e5780636266993f146100ce575b600080fd5b61009c60048036038101906100979190610e0e565b610186565b005b6100b860048036038101906100b39190610d3b565b6102f0565b6040516100c59190611051565b60405180910390f35b6100e860048036038101906100e39190610d3b565b61036a565b6040516100f5919061106c565b60405180910390f35b61011860048036038101906101139190610d3b565b6104a7565b005b6101226105a2565b60405161012f9190611036565b60405180910390f35b610152600480360381019061014d9190610d12565b6105c6565b6040516101619392919061108e565b60405180910390f35b610184600480360381019061017f9190610d8f565b610698565b005b60008054906101000a900473ffffffffffffffffffffffffffffffffffffffff1673ffffffffffffffffffffffffffffffffffffffff163373ffffffffffffffffffffffffffffffffffffffff1614610214576040517f08c379a000000000000000000000000000000000000000000000000000000000815260040161020b906110ee565b60405180910390fd5b81600160008373ffffffffffffffffffffffffffffffffffffffff1673ffffffffffffffffffffffffffffffffffffffff168152602001908152602001600020600001908051906020019061026a929190610bf2565b5080600160008373ffffffffffffffffffffffffffffffffffffffff1673ffffffffffffffffffffffffffffffffffffffff16815260200190815260200160002060010160006101000a81548173ffffffffffffffffffffffffffffffffffffffff021916908373ffffffffffffffffffffffffffffffffffffffff1602179055505050565b600080600160008573ffffffffffffffffffffffffffffffffffffffff1673ffffffffffffffffffffffffffffffffffffffff16815260200190815260200160002060020183604051610343919061101f565b9081526020016040518091039020600001805461035f906112ba565b905011905092915050565b606061037683836102f0565b6103b5576040517f08c379a00000000000000000000000000000000000000000000000000000000081526004016103ac9061110e565b60405180910390fd5b600160008473ffffffffffffffffffffffffffffffffffffffff1673ffffffffffffffffffffffffffffffffffffffff16815260200190815260200160002060020182604051610405919061101f565b90815260200160405180910390206000018054610421906112ba565b80601f016020809104026020016040519081016040528092919081815260200182805461044d906112ba565b801561049a5780601f1061046f5761010080835404028352916020019161049a565b820191906000526020600020905b81548152906001019060200180831161047d57829003601f168201915b5050505050905092915050565b6104b182826102f0565b6104f0576040517f08c379a00000000000000000000000000000000000000000000000000000000081526004016104e79061110e565b60405180910390fd5b8173ffffffffffffffffffffffffffffffffffffffff167f91d578c890fbab9b4c0093ce2eb6e7bfee0d83c18211da21952176f4e383921c600160008573ffffffffffffffffffffffffffffffffffffffff1673ffffffffffffffffffffffffffffffffffffffff16815260200190815260200160002060020183604051610578919061101f565b908152602001604051809103902060000160405161059691906110cc565b60405180910390a25050565b60008054906101000a900473ffffffffffffffffffffffffffffffffffffffff1681565b60016020528060005260406000206000915090508060000180546105e9906112ba565b80601f0160208091040260200160405190810160405280929190818152602001828054610615906112ba565b80156106625780601f1061063757610100808354040283529160200191610662565b820191906000526020600020905b81548152906001019060200180831161064557829003601f168201915b5050505050908060010160009054906101000a900473ffffffffffffffffffffffffffffffffffffffff16908060030154905083565b60008054906101000a900473ffffffffffffffffffffffffffffffffffffffff1673ffffffffffffffffffffffffffffffffffffffff163373ffffffffffffffffffffffffffffffffffffffff1614610726576040517f08c379a000000000000000000000000000000000000000000000000000000000815260040161071d906110ee565b60405180910390fd5b60006107318361088f565b9050604051806040016040528082815260200183815250600160008673ffffffffffffffffffffffffffffffffffffffff1673ffffffffffffffffffffffffffffffffffffffff16815260200190815260200160002060020183604051610798919061101f565b908152602001604051809103902060008201518160000190805190602001906107c2929190610bf2565b5060208201518160010190805190602001906107df929190610bf2565b50905050600160008573ffffffffffffffffffffffffffffffffffffffff1673ffffffffffffffffffffffffffffffffffffffff1681526020019081526020016000206003016000815480929190610836906112ec565b91905055508373ffffffffffffffffffffffffffffffffffffffff167f109ce24571ecd30f021582dae119d3722d5f8fca2b31890b534e313003e1572582604051610881919061106c565b60405180910390a250505050565b60606108a182805190602001206108a8565b9050919050565b606060006040518060600160405280603a815260200161144b603a913990506000603a90506000602e67ffffffffffffffff811115610910577f4e487b7100000000000000000000000000000000000000000000000000000000600052604160045260246000fd5b6040519080825280601f01601f1916602001820160405280156109425781602001600182028036833780820191505090505b5090506000808660001c90505b6000811115610a2e578484826109659190611335565b8151811061099c577f4e487b7100000000000000000000000000000000000000000000000000000000600052603260045260246000fd5b602001015160f81c60f81b8383806109b3906112ec565b9450815181106109ec577f4e487b7100000000000000000000000000000000000000000000000000000000600052603260045260246000fd5b60200101907effffffffffffffffffffffffffffffffffffffffffffffffffffffffffffff1916908160001a9053508381610a2791906111cb565b905061094f565b60005b600283610a3e91906111cb565b811015610be4576000848281518110610a80577f4e487b7100000000000000000000000000000000000000000000000000000000600052603260045260246000fd5b602001015160f81c60f81b90508460018386610a9c91906111fc565b610aa691906111fc565b81518110610add577f4e487b7100000000000000000000000000000000000000000000000000000000600052603260045260246000fd5b602001015160f81c60f81b858381518110610b21577f4e487b7100000000000000000000000000000000000000000000000000000000600052603260045260246000fd5b60200101907effffffffffffffffffffffffffffffffffffffffffffffffffffffffffffff1916908160001a905350808560018487610b6091906111fc565b610b6a91906111fc565b81518110610ba1577f4e487b7100000000000000000000000000000000000000000000000000000000600052603260045260246000fd5b60200101907effffffffffffffffffffffffffffffffffffffffffffffffffffffffffffff1916908160001a905350508080610bdc906112ec565b915050610a31565b508295505050505050919050565b828054610bfe906112ba565b90600052602060002090601f016020900481019282610c205760008555610c67565b82601f10610c3957805160ff1916838001178555610c67565b82800160010185558215610c67579182015b82811115610c66578251825591602001919060010190610c4b565b5b509050610c749190610c78565b5090565b5b80821115610c91576000816000905550600101610c79565b5090565b6000610ca8610ca38461115f565b61112e565b905082815260208101848484011115610cc057600080fd5b610ccb848285611278565b509392505050565b600081359050610ce281611433565b92915050565b600082601f830112610cf957600080fd5b8135610d09848260208601610c95565b91505092915050565b600060208284031215610d2457600080fd5b6000610d3284828501610cd3565b91505092915050565b60008060408385031215610d4e57600080fd5b6000610d5c85828601610cd3565b925050602083013567ffffffffffffffff811115610d7957600080fd5b610d8585828601610ce8565b9150509250929050565b600080600060608486031215610da457600080fd5b6000610db286828701610cd3565b935050602084013567ffffffffffffffff811115610dcf57600080fd5b610ddb86828701610ce8565b925050604084013567ffffffffffffffff811115610df857600080fd5b610e0486828701610ce8565b9150509250925092565b60008060408385031215610e2157600080fd5b600083013567ffffffffffffffff811115610e3b57600080fd5b610e4785828601610ce8565b9250506020610e5885828601610cd3565b9150509250929050565b610e6b81611230565b82525050565b610e7a81611242565b82525050565b6000610e8b826111a4565b610e9581856111af565b9350610ea5818560208601611287565b610eae81611422565b840191505092915050565b6000610ec4826111a4565b610ece81856111c0565b9350610ede818560208601611287565b80840191505092915050565b60008154610ef7816112ba565b610f0181866111af565b94506001821660008114610f1c5760018114610f2e57610f61565b60ff1983168652602086019350610f61565b610f378561118f565b60005b83811015610f5957815481890152600182019150602081019050610f3a565b808801955050505b50505092915050565b6000610f776025836111af565b91507f4f6e6c7920746865206f776e65722063616e2063616c6c20746869732066756e60008301527f6374696f6e0000000000000000000000000000000000000000000000000000006020830152604082019050919050565b6000610fdd6017836111af565b91507f446f63756d656e7420646f6573206e6f742065786973740000000000000000006000830152602082019050919050565b6110198161126e565b82525050565b600061102b8284610eb9565b915081905092915050565b600060208201905061104b6000830184610e62565b92915050565b60006020820190506110666000830184610e71565b92915050565b600060208201905081810360008301526110868184610e80565b905092915050565b600060608201905081810360008301526110a88186610e80565b90506110b76020830185610e62565b6110c46040830184611010565b949350505050565b600060208201905081810360008301526110e68184610eea565b905092915050565b6000602082019050818103600083015261110781610f6a565b9050919050565b6000602082019050818103600083015261112781610fd0565b9050919050565b6000604051905081810181811067ffffffffffffffff82111715611155576111546113f3565b5b8060405250919050565b600067ffffffffffffffff82111561117a576111796113f3565b5b601f19601f8301169050602081019050919050565b60008190508160005260206000209050919050565b600081519050919050565b600082825260208201905092915050565b600081905092915050565b60006111d68261126e565b91506111e18361126e565b9250826111f1576111f0611395565b5b828204905092915050565b60006112078261126e565b91506112128361126e565b92508282101561122557611224611366565b5b828203905092915050565b600061123b8261124e565b9050919050565b60008115159050919050565b600073ffffffffffffffffffffffffffffffffffffffff82169050919050565b6000819050919050565b82818337600083830152505050565b60005b838110156112a557808201518184015260208101905061128a565b838111156112b4576000848401525b50505050565b600060028204905060018216806112d257607f821691505b602082108114156112e6576112e56113c4565b5b50919050565b60006112f78261126e565b91507fffffffffffffffffffffffffffffffffffffffffffffffffffffffffffffffff82141561132a57611329611366565b5b600182019050919050565b60006113408261126e565b915061134b8361126e565b92508261135b5761135a611395565b5b828206905092915050565b7f4e487b7100000000000000000000000000000000000000000000000000000000600052601160045260246000fd5b7f4e487b7100000000000000000000000000000000000000000000000000000000600052601260045260246000fd5b7f4e487b7100000000000000000000000000000000000000000000000000000000600052602260045260246000fd5b7f4e487b7100000000000000000000000000000000000000000000000000000000600052604160045260246000fd5b6000601f19601f8301169050919050565b61143c81611230565b811461144757600080fd5b5056fe31323334353637383941424344454647484a4b4c4d4e505152535455565758595a6162636465666768696a6b6d6e6f707172737475767778797aa2646970667358221220e362c5b4cc99e1558c3ab599edfb1df432ec7d426b358722706b0045773acfc564736f6c63430008000033",
  "linkReferences": {},
  "deployedLinkReferences": {}
}